:060000000A128A110C280F
:10000800FE00030EF1000A08F2000A128A15512DAB
:100018000A128A110F280A128A11FF270A128A1156
:10002800FA0083132030840038300A128A157B24A2
:100038000A128A11F801F90183010A128A11D82BD0
:1000480083120313C80010302F06031D2C282D28F7
:1000580077280F30AC000030AD00AA01AB01A80131
:10006800A901A601A701B301B201FF30C5004508E7
:10007800C8003330B8008630B9008030C500450864
:10008800BA000A128A11CC270A128A111730831271
:100098000313B8008730B900C030C5004508BA005E
:1000A8000A128A11CC270A128A111E3083120313EE
:1000B800B8008730B900C930C5004508BA000A122F
:1000C8008A11CC270A128A11553083120313B800FB
:1000D8008630B900D030C5004508BA000A128A1126
:1000E800CC270A128A112A308312031348060319EF
:1000F8007E287F28E6282330480603198428852887
:10010800E628480A031989288A28E6280130A8071A
:100118000318A90A0030A9072908803AFF0080308F
:100128007F02031D99280330280203189C289D2864
:10013800B2280A3083120313C5004508F3003308B8
:100148000A128A15C0240A128A1183120313480757
:10015800C6004608B300A601A701E62883120313C8
:100168002908803AFF0080307F02031DBD28033034
:100178002802031CC028C128E62883120313290873
:10018800803AFF0080307F02031DCC28053028020A
:100198000318CF28D028E6280A3083120313C50095
:1001A8004508F30032080A128A15C0240A128A1177
:1001B800831203134807C6004608B2000130A600A0
:1001C8000030A7002A30831203134806031DED28C8
:1001D800EE2826292908803AFF0080307F02031D77
:1001E800F728033028020318FA28FB28012983126C
:1001F8000313B301A801A9012629831203132908AF
:10020800803AFF0080307F02031D0C29033028024A
:10021800031C0F2910292629831203132908803A61
:10022800FF0080307F02031D1B29053028020318B8
:100238001E291F29262983120313B2010230A800A0
:100248000030A9002330831203134806031D2D290B
:100258002E293B290A128A11F2250A128A11053021
:1002680083120313C5004508B000071512150130A5
:10027800AC070318AD0A0030AD0710302C062D046A
:10028800031D47294829CE29AC01AD012A082B04B2
:1002980003194F295129013052290030C500C601E0
:1002A8004508AA004608AB00CA30C5004508C30087
:1002B8000A30F3000030F4003308C600C7014608CE
:1002C800F5004708F6000A128A151E260A128A1136
:1002D8007308303E0A128A15AB240A128A11CB30F1
:1002E80083120313C5004508C3000A30BC00003060
:1002F800BD003308C600C7014608BE004708BF0056
:100308000A128A15C3250A128A11831203133C089C
:10031800303E0A128A15AB240A128A11C73083129A
:100328000313C5004508C3000A30F3000030F40089
:100338003208C600C7014608F5004708F6000A1249
:100348008A151E260A128A117308303E0A128A1567
:10035800AB240A128A11C83083120313C50045085A
:10036800C3000A30BC000030BD003208C600C70117
:100378004608BE004708BF000A128A15C3250A129C
:100388008A11831203133C08303E0A128A15AB24E3
:100398000A128A11831203132A082B040319D52978
:1003A800D629002AF3290E30B8008630B900CA30A1
:1003B800C5004508BA000A128A11CC270A128A1108
:1003C800002A0E30B8008630B900C730C50045088D
:1003D800BA000A128A11CC270A128A11002A2708A1
:1003E800003A0319F829002A2608003A0319D729E0
:1003F800013A0319E529002A080083120313C800EB
:1004080011302F06031D092A0A2A4E2AFF30C5007B
:100418004508C800B1010F30A4000030A500A201B2
:10042800A301A001A1017630B8008630B900803060
:10043800C5004508BA000A128A11CC270A128A1187
:100448008C3083120313C5004508C300DF300A123D
:100458008A15AB240A128A11DC3083120313B80000
:100468008630B900C030C5004508BA000A128A11A2
:10047800CC270A128A11863083120313B8008630FB
:10048800B900D030C5004508BA000A128A11CC2735
:100498000A128A112A308312031348060319552AAF
:1004A800562A872A2330480603195B2A5C2A872A9A
:1004B800480A0319602A612A872A0130A00703180D
:1004C800A10A0030A1072108803AFF0080307F028E
:1004D800031D702A043020020318732A742A412B42
:1004E8000A3083120313C5004508F30031080A12C5
:1004F8008A15C0240A128A11831203134807C600FA
:100508004608B100412B2A304806031D8C2A8D2A43
:10051800912AB101A001A101412B23304806031DF6
:10052800962A972A412B0A128A11F2250A128A1151
:10053800003083120313B8008630B9008030C5003C
:100548004508BA000A128A11CC270A128A11C23049
:1005580083120313B8008630B9009030C5004508EF
:10056800BA000A128A11CC270A128A110A30831299
:100578000313C5004508B30012152A2B9C30C5008B
:100588004508C3006430F3000030F4003308C600A7
:10059800C7014608F5004708F6000A128A151E2604
:1005A8000A128A117308303E0A128A15AB240A12FD
:1005B8008A119D3083120313C5004508C3000A3011
:1005C800BC000030BD000A30F3000030F4003308EE
:1005D800C600C7014608F5004708F6000A128A1542
:1005E8001E260A128A11740883120313BF007308A7
:1005F800BE000A128A15C3250A128A118312031330
:100608003C08303E0A128A15AB240A128A119E3021
:1006180083120313C5004508C3000A30BC0000302C
:10062800BD003308C600C7014608BE004708BF0022
:100638000A128A15C3250A128A11831203133C0869
:10064800303E0A128A15AB240A128A118312031348
:100658003308031D302B312BC22A12110A128A11BA
:10066800F2250A128A110A3083120313C5004508BD
:10067800AE001030C5004508AF006430F30000300C
:10068800F400831203133108C500C6014508F500BC
:100698004608F6000A128A151E260A128A117308DD
:1006A800303E83120313C7004708B4000A30BC0069
:1006B8000030BD000A30F3000030F4003108C500F6
:1006C800C6014508F5004608F6000A128A151E26D6
:1006D8000A128A11740883120313BF007308BE003C
:1006E8000A128A15C3250A128A11831203133C08B9
:1006F800303EC7004708B5000A30BC000030BD00D6
:100708003108C500C6014508BE004608BF000A12E8
:100718008A15C3250A128A11831203133C08303E36
:10072800C7004708B600B7010130A4070318A50A97
:100738000030A507103024062504031DA42BA52B83
:10074800C22BA401A501220823040319AC2BAE2B4C
:100758000130AF2B0030C500C6014508A20046088D
:10076800A3003430B8000030B900C930C5004508CE
:10077800BA000A128A11CC270A128A1183120313AB
:10078800220823040319C92BCA2BD72B0D30B80014
:100798008630B900C830C5004508BA000A128A1167
:1007A800CC270A128A1108000A128A15D5240A12BF
:1007B8008A110A128A113C250A128A110A128A1110
:1007C800F2250A128A1183120313B001B00A01300C
:1007D8000A128A15F6240A128A1183120313CC000E
:1007E8004C08CF00023030060319FB2BFC2B0E2DD2
:1007F800033030060319012C022C0E2D043030066C
:10080800031D072C082C0A2C0E2D0E2D4F03031D3B
:100818000E2C0F2C462C053030060319142C152CE1
:10082800462C0230CC004C08B0001030CC004C08EC
:10083800AF000A128A11F2250A128A1111308312A6
:100848000313B8008630B900C030CC004C08BA0099
:100858000A128A11CC270A128A112730831203132D
:10086800CE000D30CD002530CC00CC0B392CCD0B73
:10087800392CCE0B392C402C0A128A11F2250A1277
:100888008A110E2D02304F06031D4B2C4C2C5B2C6D
:10089800053030060319512C522C5B2C0330CC0048
:1008A8004C08B0001030CC004C08AF00402C03308E
:1008B8004F06031D602C612C6E2C0430CC004C08B4
:1008C800B0000930CC004C08AE001130CC004C0808
:1008D800AF00402C04304F06031D732C742CB42C2D
:1008E8003003031D782C792C8C2CB2011E30CC00DF
:1008F8004C08B300071512150A128A11F2250A12BC
:100908008A11053083120313CC004C08B0000E2D59
:1009180005303006031D912C922CA72C33081E3E5F
:10092800CC004C08B3003C303302031C9C2C9D2C9B
:10093800092C0130CC004C08B2073308C43ECC0067
:100948004C08B3000E2D07303006031DAC2CAD2C1F
:10095800092C121507150830CC004C08B0000E2DD4
:1009680005304F06031DB92CBA2CBF2C0730CC001C
:100978004C08B0000E2D06304F06031DC42CC52CA4
:10098800092C0630CC004C08B000402C0A128A1101
:10099800B5250A128A11322D4F080A128A1124200D
:1009A8000A128A11322D4F080A128A1124200A12BB
:1009B8008A11322D09302E06031DE32CE42CF32C6A
:1009C8004F080A128A1101220A128A110A30831268
:1009D80003132E06031DF12CF22C322DEB2B0A30BB
:1009E8002E06031DF82CF92C322D4F080A128A11F5
:1009F80024200A128A11322D0A128A15F8260A12A0
:100A08008A11322D12110711B001B00A322D1211BC
:100A18000711322D831203133008CC00CD014D0885
:100A2800003A0319182D322D4C08013A0319CA2C23
:100A3800033A0319D02C013A0319D72C073A0319A2
:100A4800DE2C013A0319002D033A0319062D013A49
:100A580003190B2D0F3A0319002D322D0F30831275
:100A68000313CC004C08AF00EB2B0A128A110C2898
:100A780083120313C801C901831203134808803E77
:100A8800C5004508C300FF300A128A15AB240A12B4
:100A98008A11013083120313C8070318C90A0030EA
:100AA800C9074908803AFF0080307F02031D5E2D88
:100AB80010304802031C612D622D402D66308312D0
:100AC8000313B8008630B900C030C5004508BA0025
:100AD8000A128A11CC270A128A11223083120313B0
:100AE800B8008630B9009030C5004508BA000A122F
:100AF8008A11CC270A128A1183120313CA01CB0167
:100B0800831203134A08D03EC5004508C300FF30CE
:100B18000A128A15AB240A128A11013083120313B0
:100B2800CA070318CB0A0030CB074B08803AFF00EE
:100B380080307F02031DA22D10304A02031CA52D10
:100B4800A62D842D4D3083120313C7001930C6001B
:100B58004F30C500C50BAE2DC60BAE2DC70BAE2D45
:100B68000800FF3083120313B8008630B9008030C4
:100B7800F7007708BA000A128A11CC270A128A11DC
:100B8800F73083120313B8008630B900C030F7007D
:100B98007708BA000A128A11CC270A128A11CF30B4
:100BA80083120313B8008630B9009030F700770835
:100BB800BA000A128A11CC270A128A110F3083123E
:100BC8000313B8008730B900D030F7007708BA00AF
:100BD8000A128A11CC270A128A110800F30101307F
:100BE8000A128A151B250A128A11A630F700F70B7C
:060BF800FB2D00000800C7
:100C0000203420345034523445342D344834453463
:100C10004134543449344E34473420342034203461
:100C200000342034203450346F34773465347234D7
:100C300020343D3420343934303430345734203487
:100C40002034003420344D346934633472346F34CA
:100C5000773461347634653420344F3476346534F7
:100C60006E342034003453344534543420345434F6
:100C700049344D344534203428344D344D343A34DD
:100C8000533453342934003444344F344F345234C1
:100C900020345334543441345434553453343A3476
:100CA0004F34503445344E3400342A343A344334CB
:100CB0004C344534413452342034203423343A34D3
:100CC00045344E34543445345234003420342034C6
:100CD00050346F3477346534723469346E34673429
:100CE00020344F344E3420342034003420345334F4
:100CF000453454342034543445344D3450342E3437
:100D00002034283420344334293400342A343A340B
:100D100043344C34453441345234203423343A344F
:100D200045344E3454344534523400342034343451
:100D30002E34533474346134723474342F34523456
:100D40006534733475346D346534003450346C3428
:100D50006534613473346534203443344C344F3457
:100D60005334453420340034203420342034543477
:100D700049344D34453420345534503420342134F2
:100D8000213400342034543449344D344534203433
:100D9000523465346D346E342E343D340034333483
:100DA0002E3443346F346E347634653463347434A3
:100DB00069346F346E340034203420345434453474
:100DC0004D34503420343D34203400342034353414
:100DD0002E34503461347534733465340034203427
:100DE000543449344D34453420343D3400343234A5
:100DF0002E344734723469346C346C3400343134FA
:100E00002E344D346934633472346F3400342034FA
:100E100036342E34533474346F34703400343434F4
:100E20002E34533474346134723474340034543492
:100E300049344D34453420342D3400343A340034B0
:100E40008312031388110815881408146430F30002
:100E50000030F400FF30F3070318F40AFF30F40702
:100E6000730A031D372F740A031D372F382F2A2FBB
:100E70008312031306183D2F3E2F402F0130CB2F36
:100E80008618432F442F462F0230CB2F0619492FA7
:100E90004A2F4C2F0330CB2F8815081188140814C3
:100EA0006430F3000030F400FF30F3070318F40A55
:100EB000FF30F407730A031D612F740A031D612FAD
:100EC000622F542F831203130618672F682F6A2F7F
:100ED0000430CB2F86186D2F6E2F702F0530CB2F3F
:100EE0000619732F742F762F0630CB2F881508150F
:100EF000881008146430F3000030F400FF30F3076A
:100F00000318F40AFF30F407730A031D8B2F740AC9
:100F1000031D8B2F8C2F7E2F831203130618912F06
:100F2000922F942F0730CB2F8618972F982F9A2F18
:100F30000830CB2F06199D2F9E2FA02F0930CB2FC5
:100F400088150815881408106430F3000030F40088
:100F5000FF30F3070318F40AFF30F407730A031D88
:100F6000B52F740A031DB52FB62FA82F83120313B4
:100F70000618BB2FBC2FBE2F2A30CB2F8618C12FAF
:100F8000C22FC42F0030CB2F0619C72FC82FCA2F4E
:100F90002330CB2FFF300800F301831203133A08EC
:100FA0000A128A151B250A128A11EE2FF301F30A81
:100FB0003908FF00380884000A128A1500200A1236
:100FC0008A110A128A151B250A128A11013083120E
:100FD0000313B8070318B90A0030B90783120313C3
:100FE0003908FF00380884000A128A1500200A1206
:100FF0008A11003A031DFD2FFE2FD62F0800013461
:10100000FF1B0A2883137F1883170008840A03191B
:10101000FF0A08007F087F398A000408840A031940
:04102000FF0A820041
:1018F60064008001840A04060319003404067C2C63
:10190600831603138801091189100A128A1587267E
:101916000A128A1508008312031312149214FA305D
:101926008316031392008C148312031312150800F6
:10193600831603130608073886000808F03988005E
:1019460081138312031388150815881408140800D8
:1019560083120313C400F30143080A128A151B25D8
:101966000A128A15F301F30A8312031344080A12B2
:101976008A151B250A128A150800F600F501761C41
:10198600C52CC62CCA2C7308F4007408F50703107E
:10199600F30D0310F60C7608031DD22CD32CC22CA3
:1019A600750808000A128A1583240A128A150A1273
:1019B6008A159B240A128A150A128A158E240A127F
:1019C6008A150B178B17831603130711831203133C
:1019D60007118316031387108312031387108316C8
:1019E600031386150800F6000A128A1120270A1228
:1019F6008A15F5007508F7007608031D032D042DDA
:101A0600062D77081A2D770A03190A2D0B2D122D8C
:101A16007A0803190F2D102D122DFA01042D770ABD
:101A2600031D162D172D192DFA01FA0AFF3008008D
:101A3600F60073181F2D232D831203130915262D67
:101A46008312031309117608F03988008914A63029
:101A5600F400F40B2C2D0000831203138910760872
:101A66000F39F40003300310F40DFF3E031D362D2D
:101A76000310740D88008914A630F400F40B412D70
:101A860000008312031389101B30F5009E30F4000A
:101A9600F40B4B2DF50B4B2D00000800831203139E
:101AA6008C1C562D572D812D0130F8070318F90A85
:101AB6000030F907E2307806043003197906031D71
:101AC600652D662D802DF801F901330803196C2D5B
:101AD6006D2D702D0130B302802D3308031D742D3A
:101AE600752D802D32080319792D7A2D802D013020
:101AF600B2023B30F0007008B3008C1072088A0006
:101B0600710E8300FE0E7E0E0900831203138619E2
:101B16008D2D8E2DC22D1211071187140A128A11CE
:101B2600F2250A128A15443083120313B800863050
:101B3600B900C030BB003B08BA000A128A11CC2794
:101B46000A128A15A63083120313B8008630B9002C
:101B56009030BB003B08BA000A128A11CC270A1241
:101B66008A15831203138619B92DBA2DB42D1215B1
:101B7600071587100A128A11F2250A128A1508001B
:101B860083120313C201BF1FC92DCA2DD12DBE0951
:101B9600BF09BE0A0319BF0AC201C20ABD1FD42D5E
:101BA600D52DDA2DBC09BD09BC0A0319BD0A3C08AE
:101BB6003D040319DF2DE02D0F2EC101C10AEE2DC4
:101BC60001300310BC0DBD0DFF3E031DE42D013099
:101BD600C0004008C107BD1FF12DF22DE32D3D08C1
:101BE6003F02031DF82D3C083E02031CFB2DFC2D75
:101BF600022E3C08BE023D08031CBF03BF02013093
:101C06000310BD0CBC0CFF3E031D032E0130C102A8
:101C1600031D0E2E0F2EF22D42080319132E142E1D
:101C2600192EBE09BF09BE0A0319BF0A3F08BD0027
:101C36003E08BC00080083120313B901F41F242ECA
:101C4600252E2C2EF309F409F30A0319F40AB90117
:101C5600B90AF61F2F2E302E392EF509F609F50A88
:101C66000319F60A0130F7007708B906BA01BB0175
:101C7600730874040319402E412E782EB801B80A51
:101C86004F2E01300310F30DF40DFF3E031D452EBC
:101C96000130F7007708B807F41F522E532E442E52
:101CA60001300310BA0DBB0DFF3E031D542E740800
:101CB6007602031D602E73087502031C632E642EC4
:101CC6006B2E7308F5027408031CF603F6023A1429
:101CD60001300310F40CF30CFF3E031D6C2E013093
:101CE600B802031D772E782E532E390803197C2E41
:101CF6007D2E822EBA09BB09BA0A0319BB0A3B0814
:101D0600F4003A08F3000800C33083120313B90045
:101D1600CC30B800B80B8D2EB90B8D2E0000F30118
:101D260033300A128A151B250A128A151B308312B4
:101D36000313B9009D30B800B80B9F2EB90B9F2E28
:101D4600A42EF30133300A128A151B250A128A15AE
:101D5600A53083120313B800B80BAF2EB22EF301D1
:101D660033300A128A151B250A128A15BA2EBB2E83
:101D76000000F30102300A128A151B250A128A1581
:101D8600A53083120313B800B80BC72ECA2EF30171
:101D960028300A128A151B250A128A15A5308312C5
:101DA6000313B800B80BD52ED82EF30101300A1252
:101DB6008A151B250A128A15043083120313B900EB
:101DC6003D30B800B80BE52EB90BE52EF3010C300B
:101DD6000A128A151B250A128A15A53083120313C7
:101DE600B800B80BF42EF72E08000A128A158825BB
:101DF6000A128A15EF3083120313B8008630B90031
:101E06008030C5004508BA000A128A11CC270A128A
:101E16008A158C3083120313C5004508C3000A30A7
:101E2600F3000030F4003308C600C7014608F50089
:101E36004708F6000A128A151E260A128A15730822
:101E4600303E0A128A15AB240A128A158D30831287
:101E56000313C5004508C3000A30BC000030BD00AE
:101E66003308C600C7014608BE004708BF000A126D
:101E76008A15C3250A128A15831203133C08303EBD
:101E86000A128A15AB240A128A15893083120313A3
:101E9600C5004508C3000A30F3000030F4003208DC
:101EA600C600C7014608F5004708F6000A128A155B
:101EB6001E260A128A157308303E0A128A15AB24AA
:101EC6000A128A158A3083120313C5004508C30017
:101ED6000A30BC000030BD003208C600C701460803
:101EE600BE004708BF000A128A15C3250A128A15C2
:101EF600831203133C08303E0A128A15AB240A12D9
:101F06008A151E3083120313B8008730B9008B3050
:101F1600C5004508BA000A128A11CC270A128A158A
:101F2600963083120313B8008630B900C030C5005E
:101F36004508BA000A128A11CC270A128A15E63019
:101F460083120313B8008630B9009030C5004508E7
:101F5600BA000A128A11CC270A128A150730831290
:101F66000313B8008730B900D030C5004508BA0061
:101F76000A128A11CC270A128A1583120313330810
:101F8600031DC62FC72FFF2F3208031DCB2FCC2FC3
:101F9600FF2F0A128A11F2250A128A15B43083120B
:101FA6000313B8008630B900C030C5004508BA0032
:101FB6000A128A11CC270A128A15831203131211E8
:101FC600071187144D3083120313C7001930C6005A
:101FD6004F30C500C50BED2FC60BED2FC70BED2FF0
:101FE6008312031387100A128A11F2250A128A1520
:0A1FF60083120313B001B00A0800C3
:02400E00FB3F76
:00000001FF
